:020000040800F2
:1000000000000220492700084D2600084F2600085E
:10001000512600085326000855260008000000005D
:100020000000000000000000000000004161000826
:100030005726000800000000D1610008592600087A
:100040009927000899270008992700089927000890
:100050009927000899270008992700089927000880
:100060009927000899270008992700089927000870
:100070009927000899270008992700089927000860
:100080009927000899270008992700089927000850
:100090009927000899270008992700087126000869
:1000A0009927000899270008992700089927000830
:1000B0009927000899270008992700089927000820
:1000C0009927000899270008992700089927000810
:1000D0009927000899270008992700087926000821
:1000E00099270008992700089927000899270008F0
:1000F00099270008992700089927000899270008E0
:1001000099270008992700089927000899270008CF
:1001100099270008992700089927000899270008BF
:1001200099270008992700089927000899270008AF
:10013000992700089927000899270008992700089F
:10014000992700089927000899270008992700088F
:10015000992700089927000899270008992700087F
:10016000992700089927000899270008992700086F
:100170009927000899270008992700080000000027
:080180009927000899270008E7
:1001900010B5054C237833B9044B13B10448AFF3C1
:1001A00000800123237010BDF0010020000000003A
:1001B000EC96000808B5034B1BB103490348AFF3A5
:1001C000008008BD00000000F4010020EC9600084B
:1001D000034613F8012B002AFBD1181A0138704787
:1001E00001F0FF01102A2BDB10F0070F08D010F8E8
:1001F000013B013A8B422DD010F0070F42B3F6D1EC
:10020000F0B441EA012141EA014122F007047FF004
:1002100000070023F0E80256083C85EA010586EA5B
:10022000010685FA47F5A3FA87F586FA47F6A5FA97
:1002300087F68EB9EED1F0BC01F0FF0102F00702A3
:1002400032B110F8013B013A83EA010313B1F8D14E
:100250000020704701387047002D06BF354603382F
:10026000073815F0010F07D1013015F4807F02BF68
:10027000013015F4C03F0130F0BC0138704700BFB9
:1002800081F0004102E000BF83F0004330B54FEA47
:1002900041044FEA430594EA050F08BF90EA020FB4
:1002A0001FBF54EA000C55EA020C7FEA645C7FEA47
:1002B000655C00F0E2804FEA5454D4EB5555B8BF6A
:1002C0006D420CDD2C4480EA020281EA030382EADB
:1002D000000083EA010180EA020281EA0303362D6D
:1002E00088BF30BD11F0004F4FEA01314FF4801C40
:1002F0004CEA113102D0404261EB410113F0004F52
:100300004FEA03334CEA133302D0524263EB430308
:1003100094EA050F00F0A780A4F10104D5F1200EA6
:100320000DDB02FA0EFC22FA05F2801841F1000101
:1003300003FA0EF2801843FA05F359410EE0A5F1D5
:1003400020050EF1200E012A03FA0EFC28BF4CF006
:10035000020C43FA05F3C01851EBE37101F00045BC
:1003600007D54FF0000EDCF1000C7EEB00006EEBC9
:100370000101B1F5801F1BD3B1F5001F0CD3490853
:100380005FEA30004FEA3C0C04F101044FEA4452AA
:1003900012F5800F80F09A80BCF1004F08BF5FEA31
:1003A000500C50F1000041EB045141EA050130BD11
:1003B0005FEA4C0C404141EB0101013C28BFB1F523
:1003C000801FE9D291F0000F04BF01460020B1FA6E
:1003D00081F308BF2033A3F10B03B3F120020CDA41
:1003E0000C3208DD02F1140CC2F10C0201FA0CF01F
:1003F00021FA02F10CE002F11402D8BFC2F1200C84
:1004000001FA02F120FA0CFCDCBF41EA0C01904039
:10041000E41AA2BF01EB0451294330BD6FEA040482
:100420001F3C1CDA0C340EDC04F11404C4F120026D
:1004300020FA04F001FA02F340EA030021FA04F37F
:1004400045EA030130BDC4F10C04C4F1200220FAD6
:1004500002F001FA04F340EA0300294630BD21FA14
:1004600004F0294630BD94F0000F83F4801306BFDA
:1004700081F480110134013D4EE77FEA645C18BFCE
:100480007FEA655C29D094EA050F08BF90EA020F65
:1004900005D054EA000C04BF1946104630BD91EA5D
:1004A000030F1EBF0021002030BD5FEA545C05D160
:1004B0004000494128BF41F0004130BD14F580049F
:1004C0003CBF01F5801130BD01F0004545F0FE4113
:1004D00041F470014FF0000030BD7FEA645C1ABF48
:1004E000194610467FEA655C1CBF0B46024650EA7F
:1004F000013406BF52EA033591EA030F41F40021AB
:1005000030BD00BF90F0000F04BF0021704730B530
:100510004FF4806404F132044FF000054FF0000105
:1005200050E700BF90F0000F04BF0021704730B5C6
:100530004FF4806404F1320410F0004548BF40429B
:100540004FF000013EE700BF42004FEAE2014FEAF0
:1005500031014FEA02701FBF12F07F4393F07F4FCB
:1005600081F06051704732F07F4208BF704793F0CE
:100570007F4F04BF41F40021704730B54FF46074E1
:1005800001F0004521F000411CE700BF50EA0102E4
:1005900008BF704730B54FF000050AE050EA01028D
:1005A00008BF704730B511F0004502D5404261EBFD
:1005B00041014FF4806404F132045FEA915C3FF43E
:1005C000D8AE4FF003025FEADC0C18BF03325FEADB
:1005D000DC0C18BF033202EBDC02C2F1200300FA8C
:1005E00003FC20FA02F001FA03FE40EA0E0021FAB1
:1005F00002F11444BDE600BF70B54FF0FF0C4CF49F
:10060000E06C1CEA11541DBF1CEA135594EA0C0F50
:1006100095EA0C0F00F0DEF82C4481EA030621EA8B
:100620004C5123EA4C5350EA013518BF52EA0335C6
:1006300041F4801143F4801338D0A0FB02CE4FF078
:100640000005E1FB02E506F00042E0FB03E54FF0A8
:100650000006E1FB03569CF0000F18BF4EF0010EA0
:10066000A4F1FF04B6F5007F64F5407404D25FEA9C
:100670004E0E6D4146EB060642EAC62141EA55514F
:100680004FEAC52040EA5E504FEACE2EB4F1FD0C91
:1006900088BFBCF5E06F1ED8BEF1004F08BF5FEA0F
:1006A000500E50F1000041EB045170BD06F00046C1
:1006B00046EA010140EA020081EA0301B4EB5C046E
:1006C000C2BFD4EB0C0541EA045170BD41F4801166
:1006D0004FF0000E013C00F3AB8014F1360FDEBF8B
:1006E000002001F0004170BDC4F10004203C35DA67
:1006F0000C341BDC04F11404C4F1200500FA05F3EA
:1007000020FA04F001FA05F240EA020001F000428A
:1007100021F0004110EBD37021FA04F642EB060100
:100720005EEA430E08BF20EAD37070BDC4F10C042A
:10073000C4F1200500FA04F320FA05F001FA04F2EE
:1007400040EA020001F0004110EBD37041F10001DA
:100750005EEA430E08BF20EAD37070BDC4F12005E5
:1007600000FA05F24EEA020E20FA04F301FA05F24D
:1007700043EA020321FA04F001F0004121FA04F2F5
:1007800020EA020000EBD3705EEA430E08BF20EAC5
:10079000D37070BD94F0000F0FD101F000464000FF
:1007A00041EB010111F4801F08BF013CF7D041EA81
:1007B000060195F0000F18BF704703F00046520085
:1007C00043EB030313F4801F08BF013DF7D043EA56
:1007D0000603704794EA0C0F0CEA135518BF95EA0C
:1007E0000C0F0CD050EA410618BF52EA4306D1D193
:1007F00081EA030101F000414FF0000070BD50EAB2
:10080000410606BF1046194652EA430619D094EA3B
:100810000C0F02D150EA013613D195EA0C0F05D125
:1008200052EA03361CBF104619460AD181EA030179
:1008300001F0004141F0FE4141F470014FF0000031
:1008400070BD41F0FE4141F4780170BD70B54FF0CC
:10085000FF0C4CF4E06C1CEA11541DBF1CEA13554C
:1008600094EA0C0F95EA0C0F00F0A7F8A4EB05042E
:1008700081EA030E52EA03354FEA013100F0888025
:100880004FEA03334FF0805545EA131343EA1263EE
:100890004FEA022245EA111545EA10654FEA0026A3
:1008A0000EF000419D4208BF964244F1FD0404F55C
:1008B000407402D25B084FEA3202B61A65EB0305B8
:1008C0005B084FEA32024FF480104FF4002CB6EB75
:1008D000020E75EB030E22BFB61A754640EA0C00F5
:1008E0005B084FEA3202B6EB020E75EB030E22BF35
:1008F000B61A754640EA5C005B084FEA3202B6EB76
:10090000020E75EB030E22BFB61A754640EA9C0034
:100910005B084FEA3202B6EB020E75EB030E22BF04
:10092000B61A754640EADC0055EA060E18D04FEAC2
:10093000051545EA16754FEA06164FEAC30343EA62
:1009400052734FEAC2025FEA1C1CC0D111F4801F2F
:100950000BD141EA00014FF000004FF0004CB6E728
:1009600011F4801F04BF01430020B4F1FD0C88BFC7
:10097000BCF5E06F3FF6AFAEB5EB030C04BFB6EBD2
:10098000020C5FEA500C50F1000041EB045170BDC5
:100990000EF0004E4EEA113114EB5C04C2BFD4EBF2
:1009A0000C0541EA045170BD41F480114FF0000E76
:1009B000013C90E645EA060E8DE60CEA135594EAF2
:1009C0000C0F08BF95EA0C0F3FF43BAF94EA0C0FF5
:1009D0000AD150EA01347FF434AF95EA0C0F7FF46A
:1009E00025AF104619462CE795EA0C0F06D152EABE
:1009F00003353FF4FDAE1046194622E750EA4106A2
:100A000018BF52EA43067FF4C5AE50EA41047FF4B2
:100A10000DAF52EA43057FF4EBAE12E74FF0FF3C17
:100A200006E000BF4FF0010C02E000BF4FF0010CE8
:100A30004DF804CD4FEA410C7FEA6C5C4FEA430C61
:100A400018BF7FEA6C5C1BD001B050EA410C0CBFB0
:100A500052EA430C91EA030F02BF90EA020F002012
:100A6000704710F1000F91EA030F58BF994208BF79
:100A700090422CBFD8176FEAE37040F00100704736
:100A80004FEA410C7FEA6C5C02D150EA013C07D18D
:100A90004FEA430C7FEA6C5CD6D152EA033CD3D0D8
:100AA0005DF8040B704700BF8446104662468C46D2
:100AB0001946634600E000BF01B5FFF7B7FF002805
:100AC00048BF10F1000F01BD4DF808EDFFF7F4FF2E
:100AD0000CBF012000205DF808FB00BF4DF808EDB9
:100AE000FFF7EAFF34BF012000205DF808FB00BFDC
:100AF0004DF808EDFFF7E0FF94BF012000205DF8FE
:100B000008FB00BF4DF808EDFFF7CEFF94BF0120B2
:100B100000205DF808FB00BF4DF808EDFFF7C4FFAB
:100B200034BF012000205DF808FB00BF4FEA410CF4
:100B30007FEA6C5C02D150EA013C0AD14FEA430CD7
:100B40007FEA6C5C02D152EA033C02D14FF0000014
:100B500070474FF0010070474FEA410212F5001252
:100B600015D211D56FF47873B3EB625212D94FEAF4
:100B7000C12343F0004343EA505311F0004F23FADE
:100B800002F018BF404270474FF00000704750EA33
:100B9000013005D111F0004008BF6FF000407047F0
:100BA0004FF00000704700BF4A0011D212F500124A
:100BB00011D20DD56FF47873B3EB62520ED44FEAB5
:100BC000C12343F0004343EA505323FA02F0704735
:100BD0004FF00000704750EA013002D14FF0FF3073
:100BE00070474FF0000070474FEA4102B2F1E04316
:100BF00024BFB3F5001CDCF1FE5C0DD901F0004C04
:100C00004FEAC0024CEA5070B2F1004F40EB830053
:100C100008BF20F00100704711F0804F21D113F17F
:100C20003872BCBF01F00040704741F480114FEAB8
:100C30005252C2F11802C2F1200C10FA0CF320FA41
:100C400002F018BF40F001004FEAC1234FEAD3235E
:100C500003FA0CFC40EA0C0023FA02F34FEA4303C8
:100C6000CCE77FEA625307D150EA01331EBF4FF051
:100C7000FE4040F44000704701F0004040F0FE406C
:100C800040F40000704700BF53B94AB9002908BFBB
:100C900000281CBF4FF0FF314FF0FF3000F074B957
:100CA000ADF1080C6DE904CE00F006F8DDF804E0C3
:100CB000DDE9022304B070472DE9F047089D0446A2
:100CC0008E46002B4DD18A42944669D9B2FA82F2FF
:100CD00052B101FA02F3C2F1200120FA01F10CFA3B
:100CE00002FC41EA030E94404FEA1C48210CBEFB73
:100CF000F8F61FFA8CF708FB16E341EA034306FBFC
:100D000007F199420AD91CEB030306F1FF3080F08A
:100D10001F81994240F21C81023E63445B1AA4B2D7
:100D2000B3FBF8F008FB103344EA034400FB07F779
:100D3000A7420AD91CEB040400F1FF3380F00A81BA
:100D4000A74240F207816444023840EA0640E41BAF
:100D500000261DB1D4400023C5E900433146BDE85B
:100D6000F0878B4209D9002D00F0EF800026C5E9FD
:100D7000000130463146BDE8F087B3FA83F6002E15
:100D80004AD18B4202D3824200F2F980841A61EB8D
:100D9000030301209E46002DE0D0C5E9004EDDE7AB
:100DA00002B9FFDEB2FA82F2002A40F09280A1EB93
:100DB0000C014FEA1C471FFA8CFE0126200CB1FBE8
:100DC000F7F307FB131140EA01410EFB03F08842E1
:100DD00008D91CEB010103F1FF3802D2884200F26E
:100DE000CB804346091AA4B2B1FBF7F007FB101100
:100DF00044EA01440EFB00FEA64508D91CEB04049E
:100E000000F1FF3102D2A64500F2BB800846A4EBF8
:100E10000E0440EA03409CE7C6F12007B34022FAE3
:100E200007FC4CEA030C20FA07F401FA06F31C4312
:100E3000F9404FEA1C4900FA06F3B1FBF9F8200C1F
:100E40001FFA8CFE09FB181140EA014108FB0EF065
:100E5000884202FA06F20BD91CEB010108F1FF3AB5
:100E600080F08880884240F28580A8F102086144C1
:100E7000091AA4B2B1FBF9F009FB101144EA0141CF
:100E800000FB0EFE8E4508D91CEB010100F1FF347A
:100E90006CD28E456AD90238614440EA0840A0FB12
:100EA0000294A1EB0E01A142C846A64656D353D0E8
:100EB0005DB1B3EB080261EB0E0101FA07F722FA0C
:100EC00006F3F1401F43C5E9007100263146BDE835
:100ED000F087C2F12003D8400CFA02FC21FA03F398
:100EE000914001434FEA1C471FFA8CFEB3FBF7F019
:100EF00007FB10360B0C43EA064300FB0EF69E423E
:100F000004FA02F408D91CEB030300F1FF382FD2D6
:100F10009E422DD9023863449B1B89B2B3FBF7F67E
:100F200007FB163341EA034106FB0EF38B4208D957
:100F30001CEB010106F1FF3816D28B4214D9023E98
:100F40006144C91A46EA004638E72E46284605E7B6
:100F50000646E3E61846F8E64B45A9D2B9EB020887
:100F600064EB0C0E0138A3E74646EAE7204694E717
:100F70004046D1E7D0467BE7023B614432E730464A
:100F800009E76444023842E7704700BF08B5084EDD
:100F9000084D094CD6E90001FFF7DEFD294602465F
:100FA000204606F039F9012003F077FEF2E700BF92
:100FB0005805002011970008F804002008B50B4DD3
:100FC0000B4C00212A46084605F0D4FB22461E2180
:100FD000002005F0CFFB074A3221002005F0CAFBB4
:100FE00005F02CFB0A2003F058FEEAE7E404002099
:100FF000F80400200C0500202DE98848524E534F7C
:10100000534CDFF86891DFF86881304601F0D0FC7E
:10101000384601F0CDFC4FF0FF31304601F04CFD79
:101020004FF0FF31384601F047FD304601F097FDA3
:101030002060384601F093FD464BD8F80020186038
:10104000D9F8003018442368C9F8000002EB030AFD
:10105000414BC8F800A01A6802F1010BC3F800B0B8
:10106000BBF1000F5ED0B0FBFBF0FFF74BFA3B4A41
:1010700004460D46C2E90045BAFBFBF0FFF742FA11
:10108000374B82468B462246C3E900AB20462B46AF
:101090002946FFF7B1FA26A3D3E90023FFF7ACFAFC
:1010A00025A3D3E9002341EC180B20462946FFF77E
:1010B000A3FA02460B4651EC180BFFF7E5F820A304
:1010C000D3E90023FFF7E2F8FFF76EFD254B524608
:1010D000186059465B465046FFF78EFA14A3D3E9D1
:1010E0000023FFF789FA14A3D3E9002304460D4631
:1010F00050465946FFF780FA02460B4620462946DD
:10110000FFF7C2F80EA3D3E90023FFF7BFF8FFF7FC
:101110004BFD154B104A18600023C9F80030C8F881
:1011200000301360012003F0B8FD69E7AFF30080E1
:10113000B9473A34816A003F18CFA0A17F82CD3FE2
:10114000DD24068195DF7E4078020020C002002069
:10115000C804002030050020580200203805002077
:10116000D004002040050020D804002024020020E4
:10117000200200200128024605D107494FF6FF73DF
:10118000064803F0DBBA013204D105494FF6FF737C
:101190000222F5E7704700BF1D9700087C0400207D
:1011A0001C970008B0F5807F10B50AD1064C94F961
:1011B00000303BB905484FF4806101F000FF012386
:1011C000237010BD0023FBE74405002000100240FF
:1011D00073B50C4E0C4A0D4D10700C460A23317835
:1011E000009301239940284602F0A8F8317814238F
:1011F0000093224602234900284602F077F902B004
:1012000070BD00BF0000002038020020080300204D
:1012100007B5074B074A51701978107014230093D3
:1012200049000223044802F089F803B05DF804FB8A
:1012300000000020380200200803002008B500212B
:101240000620FFF7E5FF0A2003F027FD8021032099
:10125000FFF7DEFF0A2003F020FD07210846FFF715
:10126000D7FF0A2003F019FD01210620FFF7D0FF68
:101270000A2003F012FD20217F20FFF7C9FF0A207A
:1012800003F00BFD2F210120FFF7C2FF0A2003F01E
:1012900004FD00210846FFF7BBFF0A2003F0FDFC18
:1012A00000217F20FFF7B4FF0A2003F0F6FC07209F
:1012B0000021FFF7ADFFBDE808400A2003F0EDBCB8
:1012C0002DE9F04F85B00023ADF80C30FFF7B6FFE5
:1012D00001F0AEFA2C4E0FF2A80BDBE900AB306048
:1012E0004FF000084FF0000901F0A2FA3368C31A6A
:1012F000312B0446F8D903A93720FFF769FFBDF861
:101300000C30224F5BBA1AB20192214A1380043387
:101310009BB2082B12D8D7E9000142464B46FEF794
:10132000B5FF1C4B002204460D46FFF7EBFBE0B176
:10133000C7E9008901F07CFA3060D5E73068201AEF
:10134000FFF7E0F852465B46FFF780FA019B044640
:10135000981E0D46FFF7E6F802460B462046294642
:10136000FFF74AF9D7E90023D9E70B4B00222046C3
:101370002946FFF7BDFB0028DAD1C7E90045D9E7C8
:10138000000000000004D040200500205805002087
:101390003602002000808640008086C010B5094CCF
:1013A0000021204603F074F80421204603F070F871
:1013B0000C21204603F06CF8BDE8104002480C21D7
:1013C00003F066B8340400205C03002010B50C4C18
:1013D00000222046082101F0EDFD0A4800224FF4CA
:1013E000006101F0E7FD074801224FF4004101F0E0
:1013F000E1FD20460122BDE81040042101F0DABDE4
:10140000000002400004024038B50D4D0D4C284646
:101410000022042101F0CEFD204600224FF40041BD
:1014200001F0C8FD28460122082101F0C3FD204635
:101430000122BDE838404FF4006101F0BBBD00BFA0
:10144000000002400004024038B50D4D0D4C284606
:101450000022042101F0AEFD204600224FF400419D
:1014600001F0A8FD28460022082101F0A3FD204636
:101470000022BDE838404FF4006101F09BBD00BF81
:101480000000024000040240034B01221A60034B9B
:101490001B685A221A647047080000205C03002071
:1014A000034B01221A60034B1B68E6221A64704743
:1014B000080000205C030020034B01221A60034B4C
:1014C0001B6896221A647047080000205C03002005
:1014D0000D4A002313600D4A13600D4A13600D4A34
:1014E00013600D4A13600D4A13600D4A002000215D
:1014F000C2E900010B4A13700B4A126853620B4A8F
:1015000012685362704700BF70020020740200200E
:10151000680200206C02002024050020280500201D
:1015200058050020C4040020A4030020EC03002080
:1015300008B52D4D2D4C2B68012B1AD12378613B1A
:10154000062B4BD8DFE803F0041B2934373F420059
:10155000FFF7B2FFFFF7BCFF642003F09EFB244BB4
:1015600000221A60234B01221A60234A00232B60B9
:10157000137022782149224805F04EFEDBE7FFF781
:101580009BFFFFF7A5FF642003F087FB184B0022A9
:101590001A60184B4FF0FF32E6E7FFF775FF642043
:1015A00003F07BFB124A01231360124A1360DCE74D
:1015B000FFF776FFF3E7FFF767FF642003F06DFBAB
:1015C0000B4B0122E4E7FFF76BFFF6E7FFF774FF31
:1015D000084B00221A60FFF77BFFC6E758230A205A
:1015E000237003F05AFBC0E72C0500200100002007
:1015F000080000200400002044050020089700088F
:101600000C05002038B5344B344D1B685B6A83EA07
:10161000E372A2EBE37207EE902A2DED028BB8EE97
:10162000E78AD5ED007A77EEC87AF5EEC07AF1EE6A
:1016300010FA49DD01F0FCF8294BD5ED007A196864
:10164000186077EEC87A441AFDEEE77A25492648F5
:101650000B6817EE902AD31A93FBF4F307EE903A37
:10166000224B0A60196802FB0411814226DD1860D2
:10167000DFED1F6A07EE102AF8EEE77AB8EEC77AB8
:1016800067EEA67ADFED1B6AE7EE267A93ED007A25
:10169000DFED196A194BB8EEC77AE7EE267AFDEE50
:1016A000E77A17EE900A9842B8BF184640F2DC532A
:1016B0009842A8BF1846BDEC028B38BD1048814245
:1016C000ACBF19601860D3E70E4B01221A700E4BA5
:1016D00000201860EFE700BFA403002050050020A1
:1016E000DC0400207002002040420F00680200204D
:1016F00000004843CDCCCC3E0AD7A33B24FAFFFFE1
:10170000C0BDF0FFC4040020040000202DE9F84310
:10171000224C234F234D244E3C21204602F09BFBBC
:101720002368D3F8248001F083F8814601F080F823
:10173000A0EB0900B0F57A7F1AD921684B6A0A68D4
:1017400012F0100F4FF6FF721FD09845D6BFD31A74
:10175000A8EB030343443B603A68D1F824804FF67A
:10176000FF739A4204BF00233B6001F061F8814699
:101770002B68002BDAD13368012B01D00133D5D18E
:10178000FFF740FF094B1860D0E79845AABFA2EBCE
:101790000802A3EB08039B18DDE700BFA4030020A9
:1017A0006002002008000020040000202405002022
:1017B00038B5324B324D1B685B6A83EAE372A2EBA9
:1017C000E37207EE902A2DED028BB8EEE78AD5ED95
:1017D000007A77EEC87AF5EEC07AF1EE10FA49DDBC
:1017E00001F026F8274BD5ED007A1968186077EEDE
:1017F000C87A441AFDEEE77A234924480B6817EEAD
:10180000902AD31A93FBF4F307EE903A204B0A6028
:10181000196802FB0411814226DD1860DFED1D6AA4
:1018200007EE102AF8EEE77AB8EEC77A67EEA67AE6
:10183000DFED196AE7EE267A93ED007ADFED176A9D
:10184000174BB8EEC77AE7EE267AFDEEE77A17EE89
:10185000900A9842B8BF184640F2DC539842A8BF9D
:101860001846BDEC028B38BD0E488142ACBF1960F2
:101870001860D3E70C4B00201860F2E7EC0300205F
:1018800050050020E00400207402002040420F00B8
:101890006C02002000004843CDCCCC3E0AD7A33BCD
:1018A00024FAFFFFC0BDF0FF040000202DE9F8433B
:1018B000224C234F234D244E3C21204602F0CBFAEC
:1018C0002368D3F8248000F0B3FF814600F0B0FF16
:1018D000A0EB0900B0F57A7F1AD921684B6A0A6833
:1018E00012F0100F4FF6FF721FD09845D6BFD31AD3
:1018F000A8EB030343443B603A68D1F824804FF6D9
:10190000FF739A4204BF00233B6000F091FF8146C1
:101910002B68002BDAD13368012B01D00133D5D1EC
:10192000FFF746FF094B1860D0E79845AABFA2EB26
:101930000802A3EB08039B18DDE700BFEC030020BF
:101940006402002008000020040000202805002078
:10195000274B1B68012B2DE9D043264C1CD126496F
:10196000264B0022D1E90001FEF746FE1CA3D3E975
:101970000023FEF78BFCC4E90001D4E900891AA713
:10198000D7E90067404632463B464946FFF7C4F870
:1019900098B1C4E900671AE00133EED11649174B3C
:1019A000D1E900010022FEF727FE02460B460CA1FA
:1019B000D1E90001FEF768FCDDE7114F0026324651
:1019C0003B4640464946FFF789F80028E1D1D4E973
:1019D0000001FFF7C1F8BDE8D08300BFAFF300807E
:1019E0000000000000C062400000000000C06C4029
:1019F000040000205002002058050020000018407C
:101A0000008056402DE9F047FFF7C8FC4B4D0026FB
:101A10004FF080472B68DFF84481494CDFF8409154
:101A2000DFF840A1002B5AD0012B04D0013365D13F
:101A3000FFF7EAFC01E0FFF7C9FCD8F800302BB94A
:101A4000FFF786FF3F4B1B6818640CE0012B0AD19F
:101A50002378632B34D14FF47A73C9F800304FF4F4
:101A60002F73CAF800302478612C08D1364B1B68DC
:101A70005A2B04D8354BFF221A7000232B60D8F85C
:101A80000030012B4ED1632C01D0662C39D1304966
:101A900032463B46D1E90001FEF7F6FB2D4BD3E978
:101AA0000023FFF725F860B3284B01221A70254A5E
:101AB0001268002396212B601164C8F8003031E0D1
:101AC000652BC8D003F0FD03642BCCD14FF47A739F
:101AD000CAF800304FF42F73C9F80030C3E7FFF79E
:101AE000B3FC4FF4FA7003F0D8F8184B93F90000E8
:101AF000FFF740FB6FF001032B60B4E7FFF7A4FC96
:101B0000B1E7643C012C0DD8114932463B46D1E97E
:101B10000001FEF7BBFB0F4BD3E90023FEF7F2FFFA
:101B20000028C1D10C4BDAF800201B681A64D9F8E0
:101B300000205A63012003F0B0F86BE70400002096
:101B4000010000205C03002040050020C4040020A8
:101B5000480500205805002034040020080000201B
:101B6000240500202805002000B595B02C22002176
:101B700009A804F0DFFE1422002103A804F0DAFE15
:101B80000023194A0193116C41F080511164126CC9
:101B900002F080520192019A144A0293116841F4B2
:101BA0008041116012680E9302F480420292029A00
:101BB0000222089201201022CDE90B0208A801F0B0
:101BC00021FE014608B172B6FEE70F23CDE90330CE
:101BD000CDE90500079003A801F0F2FF08B172B645
:101BE000FEE715B05DF804FB0038024000700040CD
:101BF00080B59CB000F0F6FDFFF7B6FF142200217F
:101C000013A804F097FE0024A34B01941A6BA34879
:101C100042F010021A631A6B02F010020192019A4C
:101C200002941A6B42F004021A631A6B02F0040267
:101C30000292029A03941A6B42F001021A631A6B21
:101C400002F001020392039A04941A6B42F002021A
:101C50001A631A6B02F002020492049A05941A6B3A
:101C600042F008021A631B6B03F008030593224637
:101C700040F2E251059B01F09DF9894822463C2142
:101C800001F098F9224687484FF4084101F092F993
:101C9000012640F2E253814813A90225CDE913360B
:101CA000CDE9154401F0ACF83C237D48169513A905
:101CB000CDE91336159401F0A3F840237848179521
:101CC00013A9CDE91335CDE9154401F099F84FF486
:101CD0000843744813A9CDE91336CDE9154501F041
:101CE0008FF84FF488134FF4807C6F48159413A934
:101CF000CDE913C301F084F822460521172000F036
:101D0000D5FF172001F004F81022214608A804F09E
:101D100011FE1C2221460CA8CDE9064404F00AFE5F
:101D20002022214613A804F005FE604D604BAC60F4
:101D3000C5E90034284641F61F43C5E90334C5E927
:101D4000054402F049F908B172B6FEE74FF4805637
:101D500008A92846089602F089FA08B172B6FEE78B
:101D6000284602F065F908B172B6FEE7CDE9060033
:101D700006A9284602F08EFB024608B172B6FEE7BD
:101D80006023CDE90C30CDE90E00CDE910001290B2
:101D90000CA9284602F004FA08B172B6FEE7042244
:101DA0000CA9284602F0FCF908B172B6FEE70C2235
:101DB0000CA9284602F0F4F908B172B6FEE7CDE9A5
:101DC0001300CDE9150017904FF400531A9013A992
:101DD0002846189302F09CFB044608B172B6FEE751
:101DE0000146102208A804F0A5FD1C2221460CA8DB
:101DF000304D314FCDE9064404F09CFD20222146B0
:101E000013A804F097FDA023C5E900734FF47A737B
:101E1000C5E9033428468023AC606C61AB6102F0F5
:101E2000DBF808B172B6FEE708A92846089602F06A
:101E30001DFA08B172B6FEE71E4802F0F9F808B1C3
:101E400072B6FEE7CDE9060006A91A4802F022FBA9
:101E500008B172B6FEE76023CDE90C30CDE9100081
:101E60000E9012900C2213480CA902F099F908B1B7
:101E700072B6FEE7CDE91300CDE9150017904FF4D7
:101E800000531A9013A90B48189302F041FB044623
:101E9000A0B172B6FEE700BF003802400010024059
:101EA0000000024000040240000C02403404002004
:101EB000000401405C03002000000140964E97485A
:101EC00000F05AFB21461C2214A804F033FD4FF009
:101ED00001080A254FF080434FF0FF3A4FF0030905
:101EE00013A93046CDE90C44C6E90034C6E903A481
:101EF000B460B461CDF84C90CDF854801795CDF80E
:101F000064801B9502F0C0F808B172B6FEE7CDE917
:101F10000C000CA9304602F0BDFA034608B172B6B7
:101F2000FEE77F487F4C03614FF4E132C0E9004295
:101F30000C22C0E90233C0E90523C36102F0D0FBE3
:101F4000034608B172B6FEE777487849784A0362DB
:101F5000C0E900124FF48042C0E90233C0E9042313
:101F6000C0E9063301F042F9044608B172B6FEE753
:101F7000704F01461C2214A804F0DCFC6E4B3C613F
:101F800013A93846CDE90C44C7E90034C7E9024A31
:101F9000BC61CDF84C90CDF854801795CDF8648095
:101FA0001B9502F071F808B172B6FEE7CDE90C009E
:101FB0000CA9384602F06EFA08B172B6FEE75F4C23
:101FC000DFF8F4911022002113A804F0B3FC5C4A5E
:101FD000C4F8289000234FF001082046C4E90023EC
:101FE000A3602361237684F82030E362E360C4F8C1
:101FF0001C8084F83030C4F8148000F033FC08B141
:1020000072B6FEE70A23159013A92046CDE91338CE
:1020100000F0A8FD054608B172B6FEE7494C01463E
:10202000102213A804F086FC474BA5602046C4E9A3
:102030000035C4E90A952561257684F82050E560CD
:10204000C4F81C8084F83050C4F8148000F00AFCF6
:1020500008B172B6FEE70B23159013A92046CDE90F
:10206000133800F07FFD044608B172B6FEE704F0B5
:10207000A1FB36492A48052202F081FD00F0D8FB79
:10208000334B186000F0D4FB324B186033685C624D
:102090003B684FF47A705C6200F0D0FB02F088FD80
:1020A0002D4A2E48214602F0AFFD2D4B2D4A1860D7
:1020B00021462D4802F0A8FD2C4B2D4A18602146E0
:1020C0002C4802F0A1FD2C4B2C4A186021462C48CC
:1020D00002F09AFD2B4B2C4A186021462B4802F047
:1020E00093FD2B4B2B4A186021462B4802F08CFDA8
:1020F0002A4B2B4A186021462A4802F085FD2A4BBC
:102100002A4A186021462A4802F07EFD294B1860B1
:1021100002F060FDFEE700BFA40300205C03002086
:102120007C040020004800400803002000540040C8
:10213000A0860100EC030020000C00407802002083
:1021400000210140C0020020002201403002002096
:10215000DC040020E0040020809800088D0F0008B7
:102160005C02002084970008051A00080C02002079
:1021700038980008BD0F000828020020A897000822
:102180000D17000810020020CC970008AD180008B9
:10219000140200205C980008311500082C02002071
:1021A000F0970008C11200081802002014980008D7
:1021B000F90F00081C0200200100000F00000000C1
:1021C00038B5354C2368002B38D13449344B0A7864
:1021D0001A704B78A3F130008B786425303B6B4349
:1021E0004FF47A7505FB0033C878097930380A2531
:1021F00005FB003330390B4407EE903A294BF8EEDB
:10220000E77AC3ED007AA2F16103012B1DD8B3EE8A
:102210000E7A77EEC77A17EE900AFEF795F91CA3AF
:10222000D3E90023FEF712FB1F4B0022FEF7E4F96F
:10223000FEF7DAFC1D4B186001232360BDE838402F
:1022400016491B48052202F09ABC632A01D0662A6F
:102250000ED117EE900AFEF777F90B4615490246A4
:10226000D1E90001FEF712F8134BC3E90001E3E7DF
:10227000643A012AE0D817EE900AFEF765F90B469A
:102280000C490246D1E90001FDF7FEFFECE700BF73
:10229000D7A3703D0AEB69402C05002030020020D6
:1022A00001000020C004002000609840500500207C
:1022B0007C040020580500204805002082B00E4B09
:1022C00000220092596C41F480415964596C01F428
:1022D0008041009100990192196C41F0805119647C
:1022E0001B6C03F080530193019B0F216FF00100E1
:1022F00002B000F0DBBC00BF0038024010B5142271
:102300008AB0044600210DEB020004F013FB2368A1
:102310001E4A93421FD11E4B002101915A6C42F478
:1023200000725A645A6C02F400720192019A02918E
:102330001A6B42F004021A631B6B03F0040302934E
:10234000029B012305931348032305A9069300F07C
:1023500057FD0AB010BD104A9342FAD10C4B002130
:1023600003915A6C42F480625A645A6C02F480629F
:102370000392039A04911A6B42F004021A631B6BD6
:1023800003F004030493049B0223DBE700210140D4
:1023900000380240000802400022014030B50446E7
:1023A00089B01422002103A804F0C4FA2268144B57
:1023B0009A4222D1134C144800250195236B43F017
:1023C00002032363236B03F002030193019B4FF489
:1023D00040721223CDE9032303210423CDE9061320
:1023E00003A900F00DFD0295236C43F40013236450
:1023F000236C03F400130293029B09B030BD00BFAD
:1024000000540040003802400004024010B5044669
:1024100088B01422002103A804F08CFA23681B4A18
:1024200093420DD100230093194B5A6C42F00102E4
:102430005A645B6C03F001030093009B08B010BD6D
:10244000144A9342FAD1124B1348002101915A6C5D
:1024500042F002025A645A6C02F002020192019A9E
:1024600002911A6B42F004021A631B6B03F004031F
:102470000293029B4FF430720223CDE9032303A998
:102480000323079300F0BCFCD8E700BF0000014025
:1024900000380240000401400008024070B51422D8
:1024A0008AB0044600210DEB020004F043FA2368D1
:1024B000B3F1804F37D103F50E33002400941A6C2A
:1024C000294842F001021A641A6C02F001020092DB
:1024D000009A01941A6B42F001021A631A6B02F01F
:1024E00001020192019A02941A6B42F002021A63ED
:1024F0001B6B03F002030293029B02264FF400437E
:10250000012505A9CDE90536099500F079FC0823D8
:10251000CDE90536CDE907441448099505A900F031
:102520006FFC0AB070BD124A9342FAD1114B0E48AB
:10253000002103911A6C42F008021A641A6C02F02E
:1025400008020392039A04911A6B42F001021A6383
:102550001B6B03F001030493049B03220223CDE9C8
:102560000523099305A9DAE70000024000040240B0
:10257000000C00400038024010B5044686B014221A
:10258000002101A804F0D6F922680E4B9A4216D118
:10259000002300930C4B0D481A6B42F010021A6393
:1025A0001B6B03F010030093009B4FF48042022347
:1025B000CDE9012301A90123059300F021FC06B018
:1025C00010BD00BF00000140003802400010024072
:1025D00010B5044688B01422002103A804F0AAF91B
:1025E0002268184B9A422BD103F5F833002401944A
:1025F0001A6C154842F480221A641A6C02F4802284
:102600000192019A02941A6B42F004021A631B6B46
:1026100003F0040302934FF44062029B0223CDE9CE
:10262000032303210723CDE9061303A900F0E8FBE8
:1026300027202246052100F039FB272000F068FB07
:1026400008B010BD0048004000080240FEE7FEE769
:10265000FEE7FEE7FEE7704708B500F0DDF803F09F
:10266000D5FA012803D0BDE8084003F0E3BD08BD5A
:102670004FF4807000F0ACBC014802F015B900BF07
:102680007C0400200120704708B504F01BF91623D4
:1026900003604FF0FF3008BD08B504F013F91623AE
:1026A0000360FEE770B50D4614460E46731B9C4250
:1026B00001DC204670BDAFF3008006F8010BF5E7A2
:1026C00070B50D4614460E46731B9C4201DC204635
:1026D00070BD16F8010BAFF30080F5E74FF0FF3047
:1026E00070474FF400534B60002070470120704743
:1026F000002070470B4A116810B5034609B90A4912
:102700001160106809490A4C0344091B8B4206D921
:1027100004F0D8F80C2303604FF0FF3010BD1360B5
:10272000FCE700BF60050020C85200200000022026
:1027300000040000034AD2F8883043F47003C2F862
:102740008830704700ED00E0DFF834D00D480E49C6
:102750000E4A002302E0D458C4500433C4188C42FB
:10276000F9D30B4A0B4C002301E013600432A24260
:10277000FBD3FFF7DFFF04F0ABF8FFF739FA704740
:102780000000022000000020EC0100201CA700082F
:10279000F0010020C4520020FEE7000038B50E4AC8
:1027A0000E4B054618784FF47A73B3FBF0F31068BC
:1027B000B0FBF3F000F0BAFA044658B90F2D09D86F
:1027C000024629464FF0FF3000F070FA044B2046D5
:1027D0001D6038BD0120FCE70C0000201000002027
:1027E0001400002008B50B4B1A6842F400721A60FE
:1027F0001A6842F480621A601A6842F480721A60A1
:10280000032000F041FA0F20FFF7C8FFFFF756FD45
:10281000002008BD003C0240034A044B11681B78AD
:102820000B441360704700BF6405002010000020B7
:10283000014B1868704700BF6405002038B5044696
:10284000FFF7F6FF631C1CBF054B1B78054618BF3E
:10285000E418FFF7EDFF431BA342FAD338BD00BFD6
:102860001000002038B50446002800F09B80056C5D
:1028700025B9FFF743FD656484F83C50236CDB0603
:1028800000F18E80236C23F4885323F0020343F07D
:1028900002032364444B5A6822F440325A605A6857
:1028A00061680A435A60236821695A6822F4807279
:1028B0005A605A6842EA01225A605A68A16822F0B6
:1028C00040725A605A680A435A609A68E16822F472
:1028D00000629A609A680A439A603449A26A8A42FE
:1028E00052D0996821F07061996099680A439A60A2
:1028F0009A68E16A22F040529A609A680A439A60A4
:102900009A6822F002029A609A68217E42EA4102A5
:102910009A6094F82020002A3ED05A68616A42F4F6
:1029200000625A605A6822F460425A605A6801395B
:1029300042EA41325A60DA6AE16922F47002DA62EC
:10294000DA6A013942EA0152DA629A6822F40072C4
:102950009A609A6894F8301042EA41229A609A6824
:10296000616922F480629A609A68002042EA8122BA
:102970009A606064236C23F0030343F00103236433
:10298000002384F83C3038BD9A6822F070629A6067
:102990009A6822F04052B2E75A6822F40062C9E70E
:1029A0000120EDE70120EEE7002301400100000FC8
:1029B00013B50023019390F83C30012B6CD0012318
:1029C000026880F83C309368D9070CD5936813F0FF
:1029D00001031AD1026C42F010020264426C42F010
:1029E0000102426456E093682D4943F0010393606D
:1029F0002C4B1B68B3FBF1F303EB43030193019BE7
:102A0000002BE3D0019B013BF8E7036C264C23F439
:102A1000E06323F0010343F48073036453685B05B0
:102A200041BF036C23F4405343F480530364036CAD
:102A300013F480531CBF436C23F0060343646FF010
:102A40002201002380F83C3011601849486810F0DA
:102A50001F0019D1A24206D0154B9A420DD14B68E6
:102A600013F01F0F07D1906810F0405016D19368F3
:102A700043F08043936002B010BD0E4B9A42FAD1EE
:102A80004B6813F0100FEDE7A24207D1906810F0E9
:102A90004050ECD01846EEE70220ECE70020EAE7D1
:102AA00040420F000C0000200020014000230140A4
:102AB000002101400022014003689A68520570B568
:102AC00004460D460BD59B68DE0508D5036C43F024
:102AD00020030364002380F83C30012070BDFFF721
:102AE000A7FE064623681A6891070CD56FF01202FC
:102AF0001A60226C42F4007222649A6812F0405FFD
:102B000017D00020EAE7681CEDD065B923681B6880
:102B100013F00203E6D1226C84F83C3042F0040248
:102B200022640320DAE7FFF783FE801BA842EDD87A
:102B3000D8E7207E0028E4D1DA6A12F4700F02D0C0
:102B40009B685A05DDD4236C23F480732364236CC3
:102B5000DB04D6D4236C43F001032364BEE703688F
:102B6000D86C7047F7B50023019390F83C30012BE7
:102B700066D0012380F83C300D6803688E68092D0B
:102B8000ACB231D904EB4402DF681E3A4FF0070CB7
:102B90000CFA02FC27EA0C07DF60DF6806FA02F293
:102BA0003A43DA604968062901EB81022CD8596B57
:102BB000053A1F26964021EA06015963596B04FA2B
:102BC00002F20A435A632C4A934207D1122D39D19B
:102BD000D2F8043343F48003C2F80433002380F8AE
:102BE0003C30184603B0F0BD1F6905EB45024FF0BD
:102BF000070C0CFA02FC27EA0C071F611F6906FA92
:102C000002F23A431A61CDE70C294FF01F010BD8AD
:102C10001E6B233A914026EA01011963196B04FAED
:102C200002F20A431A63CEE7DE6A413A914026EA8D
:102C30000101D962D96A04FA02F20A43DA62C2E7F0
:102C40000220CFE7A5F11003012BC7D80B4A536828
:102C5000102D43F400035360C0D1094B094A1B688F
:102C6000B3FBF2F30A2253430193019B002BB5D02F
:102C7000019B013BF8E700BF002001400023014019
:102C80000C00002040420F000749CA6822F4E062AD
:102C90000302120403F4E063120C134343F0BF6316
:102CA00043F40033CB60704700ED00E0164B30B5C5
:102CB000DC68C4F30224C4F10705231D042D28BFDA
:102CC0000425062B4FF0FF338CBF033C002403FA8E
:102CD00005F521EA0501A34022EA0302A1400028EC
:102CE00041EA0203ACBF00F16040084A4FEA031317
:102CF000B8BF00F00F00DBB2AABF00F5614013546B
:102D000080F8003330BD00BF00ED00E014ED00E0BE
:102D1000002808DB4209012300F01F0003FA00F03D
:102D2000014B43F82200704700E100E00138B0F1A8
:102D3000807F0BD24FF0E023054A5861F02182F8E2
:102D400023100020072298611A6170470120704704
:102D500000ED00E070B50446866DFFF769FD94F85C
:102D60003530022B054606D080236365002384F8A6
:102D70003430012070BD23681A6822F016021A60F0
:102D80005A6922F080025A61226C0AB9A26C1AB107
:102D90001A6822F008021A601A6822F001021A600A
:102DA00023681B6813F001030AD1E16D3F228A40BA
:102DB000B260012284F8352084F834301846D9E70F
:102DC000FFF736FD401B0528EAD920236365032061
:102DD000002384F8350084F83430CBE790F83530A0
:102DE000022B03D08023436501207047026805232E
:102DF00080F83530136823F001031360002070471A
:102E00002DE9F74FDFF8A891674A00230D680124E8
:102E10009C4004EA050CAC4340F0B1804D6805F0DD
:102E200003044FEA43080326671E06FA08F6012F3B
:102E30006FEA060634D8876807EA060ECF6807FAF5
:102E400008F747EA0E078760476827EA0C0EC5F3C4
:102E500000179F4047EA0E074760C76807EA060E5B
:102E60008F6807FA08F747EA0E07022CC76019D1E6
:102E70004FEAD30A00EB8A0A03F0070BDAF8207056
:102E80004FEA8B0B4FF00F0E0EFA0BFE27EA0E0ED9
:102E90000F6907FA0BF747EA0E07CAF8207001E03E
:102EA000032CDAD1076804FA08F43E40264315F4EF
:102EB000403F066063D04FF0000ACDF804A0D9F877
:102EC00044603A4C46F48046C9F84460D9F84460FE
:102ED00006F480460196019E23F0030606F1804623
:102EE00006F59C3603F0030ED6F808804FEA8E0EE6
:102EF0000F2707FA0EF7A04228EA070746D004F585
:102F00008064A04244D004F58064A04242D004F51D
:102F10008064A04240D004F58064A0423ED004F515
:102F20008064A0423CD004F58064A0423AD004F50D
:102F30008064A0420CBF0724082404FA0EF43C432A
:102F4000B46094686FEA0C06EF0254BF34404CEA58
:102F500004049460D468AF0254BF34404CEA0404C3
:102F6000D4605468AF0354BF34404CEA0404546046
:102F70001468ED0354BF34404CEA04041460013378
:102F8000102B7FF443AF03B0BDE8F08F5446D4E775
:102F90000124D2E70224D0E70324CEE70424CCE7BF
:102FA0000524CAE70624C8E7003C014000000240AF
:102FB000003802400AB1816170470904FBE74369A8
:102FC00001EA030221EA030141EA024181617047FB
:102FD000044A5169014208B502D05061FEF7E2F897
:102FE00008BD00BF003C014001684B6913F48063D9
:102FF0004FF0000210D06FF480634B612023026316
:1030000080F83D3080F83E20036C80F83C2043F08F
:103010000403036401207047184670472DE9F84601
:1030200006460F4691461D464FEA114A3368BAF1EB
:10303000010F0CBF5C699C6927EA0404A4B2B4FACE
:1030400084F46409A14501D0002017E06A1CEED089
:10305000FFF7EEFB089BC01AA84201D8002DE5D16E
:1030600000232022336386F83D2086F83E30326C00
:1030700086F83C3042F0200232640120BDE8F88638
:103080002DE9F04104460F461646984625686869C2
:1030900027EA000080B2B8B16B695A0516D52B68D3
:1030A00043F400732B606FF480636B612022002374
:1030B000236384F83D2084F83E30226C42F0040201
:1030C000226484F83C300120BDE8F081731CDED01E
:1030D000FFF7AEFBA0EB0800B04201D8002ED5D11F
:1030E00000232022236384F83D2084F83E30226CA4
:1030F00042F02002E4E770B504460D46164621680A
:103100004B6913F0400301D0002010E04A69D20659
:103110000ED56FF010024A612022236384F83D200F
:1031200084F83E30226C226484F83C30012070BD6B
:10313000FFF77EFB801BA84201D8002DDFD10023C2
:103140002022236384F83D2084F83E30226C42F034
:103150002002E8E770B504460D46164623685B6911
:103160005B0701D5002070BD2046FFF73DFFA8B9E1
:103170006A1CF3D0FFF75CFB801BA84201D8002D2E
:10318000ECD100232022236384F83D2084F83E30D4
:10319000226C84F83C3042F0200222640120E2E7F5
:1031A00070B504460D46164623685B691B0601D5BB
:1031B000002070BD2046FFF717FFA8B96A1CF3D0A6
:1031C000FFF736FB801BA84201D8002DECD100236D
:1031D0002022236384F83D2084F83E30226C84F85A
:1031E0003C3042F0200222640120E2E770B5044640
:1031F00008B9012070BD90F83D3003F0FF021BB903
:1032000080F83C20FFF7CAF8242384F83D30236877
:103210001A6822F001021A601A6842F400421A6029
:103220001A6822F400421A6000F066FD3F4B6568A0
:103230009D4294BF3E4B3F4B98428CBF00230123DD
:10324000002BD6D12268394E53683B49B0FBF1F1CF
:1032500023F03F030B43B542536088BF4FF496768B
:10326000136A88BF714323F03F0384BF4FF47A761B
:10327000B1FBF6F1013119431162D169431E2B48AC
:1032800021F44F41854221F0FF0132D86D0040F614
:10329000FC70B3FBF5F30133034242D0C3F30B03DD
:1032A0000B43D361D4E907301168034321F0C00117
:1032B0000B4313609168D4E9030321F403410343F2
:1032C00021F0FF010B439360D4E90530D16803433B
:1032D00021F0FF010B43D360136843F00103136037
:1032E00000202023206484F83D30206384F83E00D1
:1032F00080E7A06850B905EB4505B3FBF5F3013352
:10330000C3F30B037BB143F40043C9E719204543E2
:10331000B3FBF5F30133C3F30B0323B143F4404391
:10332000BEE70423BCE70123BAE700BFA086010083
:103330007F841E00FF083D0040420F002DE9F0434E
:10334000044685B098460C9F0D469146FFF770FAEB
:1033500094F83D30202B064604D00225284605B0BF
:10336000BDE8F08300905D49192301222046FFF754
:1033700055FE0028F1D194F83C30012BEDD02168A6
:10338000012384F83C300B68DA075EBF0B6843F01A
:1033900001030B600B6823F400630B60212384F8A6
:1033A0003D30102384F83E3000232364A4F82A80A3
:1033B000638D23854A4BE362E36AC4F82490082BAB
:1033C00004D0012B02D013F5803F04D10B6843F4E5
:1033D00080730B6002E0236B122BF7D00022009663
:1033E0003B464FF001112046FFF718FE226838B126
:1033F0001368DB0544BF4FF4007323640125ADE778
:103400002369B3F5804F21D105F0FE0515613549DB
:1034100033463A462046FFF733FE05460028EDD1F5
:10342000236803905A6903929B690393039B238D3E
:10343000F3B921680A6842F400720A60202284F815
:103440003D2084F83C3084F83E3087E7EB1103F0F0
:10345000060343F0F0031361234933463A462046FE
:10346000FFF70EFE0028C9D12368EDB21D61CEE73B
:10347000324639462046FFF793FE40B1236C042BB9
:10348000BCD12268136843F400731360B6E7636A23
:1034900020681A4612F8011B01616262628D013ACE
:1034A00092B26285228DD0F814C0511E89B21CF0F0
:1034B000040F21850AD049B1597801610233636252
:1034C000638D013B9BB2023A6385228532463946C1
:1034D0002046FFF73FFE0028A9D0CFE702001000EA
:1034E0000000FFFF02000100080001002DE9F04389
:1034F000044689B09846109F0E469146FFF798F90A
:1035000094F83D30202B054604D00226304609B001
:10351000BDE8F08300909A49192301222046FFF765
:103520007DFD0028F1D194F83C30012BEDD02168CD
:10353000012384F83C300B68DB075EBF0B6843F067
:1035400001030B600B6823F400630B60222384F8F3
:103550003D30102384F83E3000232364A4F82A80F1
:10356000638D2385874BE362E36A0A68C4F824907D
:1035700042F48062082B0A6004D0012B02D013F5BC
:10358000803F04D10B6843F480730B6002E0236B2F
:10359000112BF7D03B46009500224FF00111204639
:1035A000FFF73CFD236838B11B68D80502D54FF4FE
:1035B000007323640126A9E72269B2F5804F27D161
:1035C00046F00106F6B21E616F492B463A46204688
:1035D000FFF756FD06460028ECD1238D2168002B0D
:1035E0004BD103904B6903938B690393039B0B6847
:1035F00043F400730B60DFF89881238D002B64D1B6
:10360000202284F83D2084F83C3084F83E307DE769
:103610004FEAE61808F0060848F0F0021A615B4924
:103620002B463A462046FFF72BFD0028C2D12368DF
:103630005549F6B21E613A462B462046FFF720FD5B
:103640000028B7D1236807905A6907929A690792B0
:10365000079A1A6842F480721A604FF0011102460C
:1036600000953B462046FFF7D9FC226808B1136855
:103670009BE748F0F1031361A6E7012B0AD10B6821
:1036800023F480630B6004904B6904938B6904936B
:10369000049BACE7022B0B680DD123F480630B6015
:1036A0000B6843F400630B6005904B6905938B69CD
:1036B0000593059B9FE743F480630B6006904B697D
:1036C00006938B690693069B95E7032B62D8012B23
:1036D00016D12A4639462046FFF70DFD00287FF413
:1036E00069AF23681A69636A1A70636A0133636297
:1036F000238D013B2385638D013B9BB263857CE772
:10370000022B00953B464FF00002414620461AD15D
:10371000FFF784FC00287FF44DAF23681A6842F459
:1037200000721A601A69636A1A70626A531C6362D3
:10373000238D013B2385638D013B9BB26385236809
:103740001B695370D1E7FFF769FC00287FF432AFA3
:1037500023681A6822F480621A601A69636A1A7010
:10376000636A009501336362238D013B2385638D7A
:10377000013B9BB2638502463B4641462046C7E774
:10378000020010000000FFFF02000100080001001D
:10379000040001002A4639462046FFF7ACFC002809
:1037A0007FF408AF23681A69636A1A70626A531C4F
:1037B0006362238D013B2385638D013B9BB263854F
:1037C0002368596949077FF518AFB9E7044B01220F
:1037D0001A62044B82B01B680193019B02B07047D0
:1037E00000000E4200700040044B00221A62044B9D
:1037F00082B01B680193019B02B0704700000E422B
:10380000007000402DE9F341044640B30368DD0732
:1038100010D4236898075ED423681A0700F1A080AB
:1038200023685B0700F1C080A069002840F0288170
:1038300000202BE08F4B9A6802F00C02042A07D07C
:103840009A6802F00C02082A0BD15A68510208D576
:10385000884B1B689A03DCD56368002BD9D1012003
:1038600014E06268B2F5803F13D11A6842F48032E6
:103870001A60FEF7DDFF7F4E054633689B03C8D410
:10388000FEF7D6FF401B6428F7D9032002B0BDE83D
:10389000F081784DB2F5A02F2B6807D143F4802337
:1038A0002B602B6843F480332B60E2E723F48033F2
:1038B0002B602B6823F480232B60002AD9D1FEF7DC
:1038C000B7FF06462B689F03A3D5FEF7B1FF801B09
:1038D0006428F7D9D9E7674B9A6812F00C0F07D024
:1038E0009A6802F00C02082A11D15B685E020ED4BD
:1038F000604A13689D0702D5E368012BAFD11368B6
:10390000216923F0F80343EAC103136084E7E26806
:10391000594BB2B101221A60FEF78AFF554D064697
:103920002B68980707D52B68226923F0F80343EA30
:10393000C2032B6070E7FEF77BFF801B0228EFD9E4
:10394000A3E71A60FEF774FF4A4E054633689907ED
:103950007FF562AFFEF76CFF401B0228F6D994E7B3
:103960006269454B82B10122C3F8802EFEF760FFE9
:10397000404E0546736F9F073FF552AFFEF758FF65
:10398000401B0228F6D980E7C3F8802EFEF750FFCF
:10399000384E0546736F98077FF542AFFEF748FF34
:1039A000401B0228F6D970E7324B1A6C12F0805295
:1039B00028D101921A6C42F080521A641B6C03F0F9
:1039C00080530193019B01272C4D2B68D9051BD5F2
:1039D000A368284D012B27D12B6F43F001032B67E0
:1039E000FEF726FF234E054641F28838336F9B07CA
:1039F00039D5002F3FF418AF1E4A136C23F08053C3
:103A0000136411E70027DFE72B6843F480732B6012
:103A1000FEF70EFF06462B68DA05D9D4FEF708FF3D
:103A2000801B0228F7D930E7052B04D12B6F43F018
:103A300004032B67D0E72A6F22F001022A672A6F5E
:103A400022F004022A67002BCAD1FEF7F1FE41F2F0
:103A5000883806462B6F9807CBD5FEF7E9FE801B0A
:103A60004045F7D911E7FEF7E3FE401B4045BDD9BD
:103A70000BE700BF003802400000474200700040E2
:103A8000364DAB6803F00C03082B3DD0344B0022BD
:103A900002281A662BD1FEF7CBFE06462B68990149
:103AA0001FD4D4E907321343626A43EA8213E26AFD
:103AB00043EA0263A26A5208013A43EA02436B6096
:103AC000274B264D01221A66FEF7B2FE04462B68EC
:103AD0009A013FF5ADAEFEF7ABFE001B0228F6D90A
:103AE000D3E6FEF7A5FE801B0228D7D9CDE6FEF768
:103AF0009FFE04462B689B017FF59AAEFEF798FE69
:103B0000001B0228F6D9C0E601283FF4BFAE6B685F
:103B1000E26903F4800191427FF4A1AE216A03F0CF
:103B20003F028A427FF49BAE616A47F6C0721A4038
:103B3000B2EB811F7FF493AEA26A520803F44031C6
:103B4000013AB1EB024F7FF48AAEE26A03F0706390
:103B5000B3EB026F3FF46CAE81E600BF0038024069
:103B600000004742134908B58B6803F00C03042B8F
:103B70001CD0082B1CD14A684B68496813F4800399
:103B800014BF0D480D48C1F3881118BF002302F07F
:103B90003F02A1FB0001FDF777F8064B5B68C3F31A
:103BA000014301335B00B0FBF3F008BD0248FCE7C2
:103BB0000248FAE70038024040787D010024F40012
:103BC0002DE9F0410D46044610B90120BDE8F08111
:103BD000444B1A6802F007028A4228D322689707EA
:103BE0002DD4D00741D43F4B1A6802F00702AA42F5
:103BF00066D8226851076CD4130707D53A4A216961
:103C0000936823F4604343EAC1039360FFF7AAFF7C
:103C1000354B364A9B68C3F30313D35CD840344B0F
:103C20001860344B1868FEF7B9FD0020CEE7CAB221
:103C30001A701B6803F007038B42C6D1CEE72A4BEC
:103C400012F0040F1EBF996841F4E0519960160705
:103C500042BF996841F4604199602349A0688B682C
:103C600023F0F00303438B60BBE762681E4B012A1D
:103C70001CD11B6813F4003FA7D01B4EB36823F080
:103C800003031343B360FEF7D3FD41F288380746C0
:103C9000B368626803F00C03B3EB820FA3D0FEF7A6
:103CA000C7FDC01B4045F3D903208FE7911E0129B2
:103CB0001B6802D813F0007FDEE713F0020FDBE78A
:103CC000EAB21A701B6803F00703AB427FF47DAFC2
:103CD0008FE70549E0688B6823F4E05303438B606A
:103CE0008AE700BF003C024000380240A498000868
:103CF0000C00002014000020044B054A9B68C3F30D
:103D00008223D35C034A1068D840704700380240D1
:103D1000B49800080C000020044B054A9B68C3F3CC
:103D20004233D35C034A1068D840704700380240E1
:103D3000B49800080C000020036A23F0010303621A
:103D4000036A70B5446882690D6822F073022A43E1
:103D50008D6823F002032B430E4DA84202D00E4E75
:103D6000B04210D1CE6823F008033343A84223F0B9
:103D7000040302D0084DA84205D1D1E9055624F428
:103D8000407435432C43446082614A684263036255
:103D900070BD00BF0000014000040140036A23F42D
:103DA00080730362036A70B54468C2690D6822F0CB
:103DB00073022A438D6823F4007343EA0523114DEF
:103DC000A84203D005F58065A84214D1CD6823F43C
:103DD000006343EA05230B4DA84223F4806303D01C
:103DE00005F58065A84206D1D1E9055624F4405472
:103DF000354344EA05144460C2614A68C263036201
:103E000070BD00BF00000140036A23F480530362C9
:103E1000036A30B54468C2690D6822F4E64242EA9A
:103E200005228D6823F4005343EA0533084DA84268
:103E300003D005F58065A84204D14D6924F480447F
:103E400044EA85144460C2614A680264036230BD7A
:103E500000000140704730B590F83E2090F83F30A8
:103E600090F8425090F84340D2B2DBB2EDB2E4B2E7
:103E7000C9B9012A46D1012D46D1022380F83E302E
:103E800080F8423003681A6A22F001021A621A6A44
:103E900042F001021A620268136843F001031360E2
:103EA0000023184630BD042911D1012B2AD1012C41
:103EB000F7D1022380F83F3080F8433003681A6A54
:103EC00022F010021A621A6A42F01002E2E7012A96
:103ED00018D1012B18D1012DE3D1012CE1D10223FE
:103EE00080F83E3080F83F3080F8423080F8433030
:103EF00003681A6A22F001021A621A6A42F0010289
:103F00001A62DCE70123CCE71346CAE7304A0368AC
:103F1000904212D0B0F1804F0FD0A2F57C42904277
:103F20000BD002F58062904207D002F58062904289
:103F300003D002F57842904219D14A6823F0700309
:103F40001343234A904229D0B0F1804F26D0A2F5E6
:103F50007C42904222D002F5806290421ED002F54F
:103F6000806290421AD002F57842904216D0194AE7
:103F7000904213D002F5806290420FD002F5806229
:103F800090420BD0A2F59832904207D002F58062A1
:103F9000904203D002F58062904203D1CA6823F4B4
:103FA000407313434A6923F08003134303608B6813
:103FB000C3620B688362064B984203D003F58063AB
:103FC000984201D10B69036301234361704700BF2D
:103FD000000001400040014010B5044630B390F8A5
:103FE0003D3003F0FF021BB980F83C20FEF70EFACB
:103FF0000223206884F83D30211DFFF787FF01234D
:1040000084F84630002084F83E3084F83F3084F84D
:10401000403084F8413084F8423084F8433084F8EA
:10402000443084F8453084F83D3010BD0120FCE771
:1040300010B5044630B390F83D3003F0FF021BB9D1
:1040400080F83C20FFF706FF0223206884F83D300B
:10405000211DFFF75BFF012384F84630002084F820
:104060003E3084F83F3084F8403084F8413084F8A2
:10407000423084F8433084F8443084F8453084F882
:104080003D3010BD0120FCE7F8B50D460446002880
:104090004DD090F83D3003F0FF021BB980F83C2072
:1040A000FEF7FCF92146022384F83D3051F8040B59
:1040B000836823F4804323F007038360FFF726FF20
:1040C00020682A6886688369A968076A1643AA690E
:1040D00023F4407341EA022123F003030B4323F44A
:1040E0007C422B69E9691B0143EA0123E9680B4320
:1040F000296A22F0FC0243EA01331343696927F07D
:10410000AA026F68866047EA01178361174301239B
:10411000076284F84630002084F83E3084F83F304F
:1041200084F8423084F8433084F83D30F8BD0120F3
:10413000FCE70000036A23F010030362036A70B512
:10414000446882690D6822F4E64242EA05228D68DD
:1041500023F0200343EA0513104DA84203D005F5D0
:104160008065A84214D1CD6823F0800343EA05138B
:104170000A4DA84223F0400303D005F58065A8420C
:1041800006D1D1E9055624F44064354344EA850458
:10419000446082614A688263036270BD000001402E
:1041A00070B590F83C30012B054653D00120082A09
:1041B00085F83C003DD006D8C2B1042A28D000239F
:1041C00085F83C3070BD0C2AF9D12868FFF71CFE39
:1041D0002B680969DA6942F40062DA61DA6922F46B
:1041E0008062DA61DA6942EA012231E02868FFF789
:1041F000A3FD2B6809699A6942F008029A619A69DD
:1042000022F004029A619A690A439A610020D6E773
:104210002868FFF78FFF2B6809699A6942F40062EA
:104220009A619A6922F480629A619A6942EA01224B
:10423000EBE72868FFF7B2FD2B680969DA6942F0FD
:104240000802DA61DA6922F00402DA61DA690A4303
:10425000DA61DBE70220B5E710B58468114324F486
:104260007F4441EA03232343836010BD70B590F877
:104270003C30012B04464FF0020300F091800122F4
:1042800080F83D3080F83C200068836823F47F4349
:1042900023F0770383600B68602B52D033D8402B18
:1042A00067D016D8202B0DD00AD833F0100109D0D2
:1042B000012384F83D30002384F83C30104670BD63
:1042C000302BF5D1826822F07002134343F00703CC
:1042D00017E0502BECD14A68CE68016A056A25F0D8
:1042E00001050562836921F00A0123F0F00343EA26
:1042F00006130A4383610262836823F0700343F06C
:104300005703836011E0B3F5805F0ED0B3F5005F13
:104310000DD0702BCCD1CB68D1E90121FFF79CFFE8
:104320002268936843F0770393600022C0E7CB686C
:10433000D1E90121FFF790FF2268936843F480439D
:10434000F2E74D68CE68016A21F0100101628269CE
:10435000036A22F4704223F0A00343EA051342EA01
:10436000063282610362836823F0700343F06703BF
:10437000C7E74A68CE68016A056A25F0010505624B
:10438000836921F00A0123F0F00343EA06130A438C
:1043900083610262836823F0700343F04703B0E750
:1043A0001A468BE7036A01F01F0110B501248C4007
:1043B00023EA04030362036A8A401A43026210BDBF
:1043C00010B5044629B990F83E30012B18D00120D1
:1043D0002DE004290DD190F83F30013B18BF012397
:1043E000002BF4D104294FF0020321D184F83F308F
:1043F00009E008290CBF90F8403090F84130ECE714
:10440000022380F83E3020680122FFF7CBFF2368AB
:104410001C498B4213D01C4A934210D0B3F1804FF9
:1044200014D19A6802F00702062A26D1002010BD96
:1044300008290CBF84F8403084F84130E3E75A6C17
:104440008B4242F400425A64EBD0E7E70F4A9342B2
:10445000E7D002F580629342E3D002F58062934296
:10446000DFD002F578429342DBD002F570529342DE
:10447000D7D0A2F594329342D3D01A6842F0010209
:104480001A60D3E70000014000040140000400402E
:10449000FFF796BF30B590F83C30012B4FF0020388
:1044A00032D080F83D3003680D685C689A6824F06B
:1044B00070042C435C60154CA3421AD0B3F1804FBA
:1044C00017D0A4F57C44A34213D004F58064A34222
:1044D0000FD004F58064A3420BD004F57844A342C6
:1044E00007D004F57054A34203D0A4F59434A3423A
:1044F00004D1496822F080020A439A60012380F8BF
:104500003D30002380F83C30184630BD00000140AB
:1045100090F83C30012B1FD0CB688A6823F440739D
:1045200013434A6823F4806313430A6823F4006347
:1045300013430A6923F4805313434A6923F4005355
:104540001343CA6923F4804313430268536400236E
:1045500080F83C301846704702207047026802F12C
:104560000C0353E8003F23F490730C3242E800310F
:1045700002680029F2D102F1140353E8003F23F04E
:10458000010302F1140C4CE800310029F3D1036B54
:10459000012B0BD102F10C0353E8003F23F0100371
:1045A00002F10C0C4CE800310029F3D1202380F8F3
:1045B0003E300023036370470268C168136923F427
:1045C00040530B4370B51361054683680069D16899
:1045D000034368690343E86921F4164121F00C01A3
:1045E00003430B43D3605369A96923F440730B431E
:1045F00053611F4B9A4203D003F580639A4223D143
:10460000FFF78AFBEB691921B3F5004FD5E90046A6
:10461000A0FB01011BD1B2194FF000035B41FCF775
:1046200033FB6421B0FBF1F501FB1503DB003233F2
:10463000B3FBF1F303F007025B0002EB051203F496
:10464000F8731344A36070BDFFF756FBDAE7B200BE
:10465000B30FFCF719FB6422B0FBF2F102FB11036C
:104660001B013233B3FBF2F303EB0113EAE700BFA4
:1046700000100140F8B504460E4617461D46226854
:10468000136836EA030301D1002028E06B1CF7D041
:1046900025B1FEF7CDF8C01B8542F0D2226802F1A9
:1046A0000C0353E8003F23F4D0730C3242E800308F
:1046B00021680028F2D101F1140353E8003F23F0F0
:1046C000010301F1140040E80032002AF3D1202355
:1046D00084F83D3084F83C2084F83E300320F8BD57
:1046E00010B5044640B390F83D3003F0FF021BB90B
:1046F00080F83C20FDF76CFF2268242384F83D30CD
:10470000D36823F40053D3602046FFF755FF236896
:104710001A6922F490421A615A6922F02A025A61F7
:10472000DA6842F40052DA6000202023206484F822
:104730003D3084F83E3010BD0120FCE7F7B5174648
:1047400090F83D200093202A04460E4649D10029C6
:1047500045D0002F43D090F83C20012A41D00122BF
:1047600080F83C2000252122056480F83D20FEF7DA
:104770005FF8A168009BA784B1F5805F0246E784DB
:1047800003D1216909B935460E46002184F83C1051
:10479000E18C89B241B940212046FFF76BFF60B937
:1047A000202384F83D3009E080212046CDE9002314
:1047B000FFF760FFDDE9002310B1032003B0F0BD77
:1047C00020684EB935F8021BC1F308014160E18C45
:1047D000013989B2E184DBE716F8011BF6E7012015
:1047E000ECE70220EAE77047704708B5806B0023CA
:1047F000C385C384FFF7F8FF08BD704707B581681C
:10480000836A0268B1F5805F3ED1016900293ED11B
:104810005268C2F3080223F8022B8362C38D013B66
:104820009BB2C385002B2CD10268D16821F02001F6
:10483000D160D16821F48071D160516921F001010A
:104840005161202280F83E20026B012A026828D1A3
:10485000036302F10C0353E8003F23F0100302F15D
:104860000C0C4CE800310029F3D11368DB0605D5A8
:1048700001911368019353680193019B818DFFF7A8
:10488000BCFF03B05DF804FB39B9016929B952686E
:10489000D2B21A70836A0133BFE7526802F07F0216
:1048A000F7E7FDF78DFCECE7036837B51A68D968C0
:1048B0005D6912F00F0F04460CD1950670D58D0678
:1048C0006ED590F83E30222B64D103B0BDE8304065
:1048D000FFF794BF05F0010001F4907505435FD028
:1048E000D50705D5CB0542BF236C43F001032364F4
:1048F000550704D518B1236C43F0020323649307D2
:1049000004D518B1236C43F004032364150707D5BD
:1049100001F0200303431EBF236C43F0080323640C
:10492000236C002B36D0900608D58A0606D594F85D
:104930003E30222B02D12046FFF760FF23685B69DF
:10494000256C03F0400305F008051D43204623D0E5
:10495000FFF704FE226853695B0618D502F11403C1
:1049600053E8003F23F0400302F1140040E8003117
:104970000029F3D1A06B50B1724B0365FEF72EFAFC
:1049800040B1A06B036D03B0BDE83040184720462E
:10499000FFF72AFF03B030BDFFF726FF2564F9E7D4
:1049A000206B012840F09180D50640F18E80C8062A
:1049B00040F18B80002201921A6801925A6801929C
:1049C000019A5A6955064CD5A16B0A68526892B291
:1049D000002ADFD0A08D9042DCD9E285CA69B2F509
:1049E000807F36D003F10C0252E8002F22F480724F
:1049F00003F10C0040E800210029F3D103F1140277
:104A000052E8002F22F0010203F1140040E80021D7
:104A10000029F3D103F1140252E8002F22F04002E2
:104A200003F1140040E800210029F3D1202284F88A
:104A30003E20216303F10C0252E8002F22F0100205
:104A400003F10C0040E800210029F3D1A06BFEF730
:104A500081F9E38DA18DC91A89B22046FFF7CDFEF9
:104A600098E7E18D8AB2E18D89B2002992D0A18DBB
:104A7000891A89B200298DD003F10C0252E8002F67
:104A800022F4907203F10C0545E800200028F3D1D0
:104A900003F1140252E8002F22F0010203F1140581
:104AA00045E800200028F3D1202284F83E2020632E
:104AB00003F10C0252E8002F22F0100203F10C0562
:104AC00045E800200028F3D1C7E7100628D50D06D9
:104AD00026D594F83D20212A7FF45CAFA168226A94
:104AE000B1F5805F17D12169A9B932F8021BC1F372
:104AF000080159602262E28C013A92B2E284002AF3
:104B00007FF448AFDA6822F08002DA60DA6842F0B7
:104B10004002DA603EE7511C216212785A60EAE7EF
:104B200050067FF537AF4A067FF534AFDA6822F0DA
:104B30004002DA60202384F83D302046FFF753FE20
:104B400028E700BFEB470008C285002382852222A8
:104B5000036480F83E20026980F83C30816203687B
:104B60001AB1DA6842F48072DA605A6942F00102DE
:104B70005A61DA6842F02002DA600020704770B4AF
:104B800090F83E60202E10D161B15AB190F83C40AF
:104B9000012C0AD0012480F83C400024046370BC3E
:104BA000FFF7D2BF012070BC70470220FBE7000076
:104BB000EFF305832BB9064B186828B901221A6058
:104BC00070476FF0050070474FF0FF30704700BF2F
:104BD000C407002010B5EFF305845CB9084B1A68D0
:104BE000012A0AD1074AD47702221A6000F088FD10
:104BF000204610BD6FF00500FBE74FF0FF30F8E7EF
:104C0000C407002000ED00E0F0B587B01446002294
:104C10000B460592EFF30582D2B9C8B1002C2FD014
:104C2000A569002D08BF1825691E3729AC462BD869
:104C30006168C90728D466696EB1B208D4E9027EFA
:104C4000216857B1BEF15B0F02D9246904B1EEB9F6
:104C5000059807B0F0BD8022F0E7BEF1000FF7D154
:104C60002469002CF4D10C4605A9CDE900C192B20B
:104C7000214600F018FD01281CBF00230593E7E73B
:104C80004FF0180C8022EFE71046E2E7CDE901472C
:104C9000009500F0D0FC0590DAE710B5EFF305843D
:104CA00024B910B100F08AFE204610BD6FF0050057
:104CB000FBE70000034B0360034B0B608023136092
:104CC000704700BF6807002068050020034B0360A1
:104CD000034B0B604FF4807313607047C80B0020C8
:104CE000C807002000F108034FF0FF32C0E902239B
:104CF0004360036100230360704700230361704732
:104D000043684B609A688A609A685160996003684A
:104D1000086101330360704730B50C68631C0AD129
:104D200003695A684A6091608B6059600368086142
:104D30000133036030BD00F1080213465268156864
:104D4000A542FAD9EDE7D0E9011203698A60516002
:104D50005968814208BF5A60002202611A68013A0C
:104D60001A601868704710B5044601F0FBF9A46B8F
:104D700001F018FAB4FA84F0400910BDF8B51546F0
:104D8000026C866B044652B9076847BB806800F026
:104D90004DFFA76005460136A6632846F8BD65B9F4
:104DA000406801F0B9FD6368226C1344A268636037
:104DB0009342F0D323686360EDE7C06801F0ACFD77
:104DC000226CE36851429B1A2268E36093423EBF23
:104DD000A3685B18E360022D01D116B1013E0025E6
:104DE000D9E73546D7E7034610B41A6C08466AB1CE
:104DF000DC68996814448C4228BF1968DC6028BFBD
:104E0000D960D9685DF8044B01F086BD5DF8044BAC
:104E1000704770B5044601F0A5F994F8455004F1C7
:104E200024066DB2002D14DCFF2384F8453001F018
:104E3000B9F901F097F994F8445004F110066DB2F5
:104E4000002D12DCFF2384F84430BDE8704001F0EF
:104E5000A9B9636A002BE7D0304600F045FE08B1DF
:104E600000F0CEFE013D6DB2DCE72369002BE9D0F6
:104E7000304600F039FE08B100F0C2FE013D6DB2CF
:104E8000DEE738B50D46044640B94FF0500383F3D2
:104E90001188BFF36F8FBFF34F8FFEE701F062F908
:104EA000D4E90F31226862604B43D0185B1A134477
:104EB000A060E3600020FF23A06384F8443084F8FE
:104EC0004530A5B9236973B104F1100000F00CFE60
:104ED00048B14FF0E0234FF08052C3F8042DBFF3E8
:104EE0004F8FBFF36F8F01F05DF9012038BD04F1E2
:104EF0001000FFF7F7FE04F12400FFF7F3FEF2E7DE
:104F000013B51C4640B94FF0500383F31188BFF32B
:104F10006F8FBFF34F8FFEE743B94FF0500383F31A
:104F20001188BFF36F8FBFF34F8FFEE74AB191B97E
:104F30004FF0500383F31188BFF36F8FBFF34F8F90
:104F4000FEE741B14FF0500383F31188BFF36F8F39
:104F5000BFF34F8FFEE750230193019B502B08D0E6
:104F60004FF0500383F31188BFF36F8FBFF34F8F60
:104F7000FEE7002908BF2246019B22600123C4E905
:104F80000F0184F8463019462046FFF77AFF9DF856
:104F9000103084F84C30204602B010BD2DE9F043AB
:104FA00085B0884601921F46044640B94FF0500331
:104FB00083F31188BFF36F8FBFF34F8FFEE751B9B3
:104FC000036C43B14FF0500383F31188BFF36F8F2D
:104FD000BFF34F8FFEE7022F0BD1E36B012B08D0FD
:104FE0004FF0500383F31188BFF36F8FBFF34F8FE0
:104FF000FEE700F00BFE064650B9019B4BB14FF0A7
:10500000500383F31188BFF36F8FBFF34F8FFEE719
:1050100000264FF0000937E0019D1DB901F0C2F8EC
:10502000002052E016B902A800F0A2FD01F0BAF883
:1050300000F0ACFB01F096F894F84430FF2B08BF69
:1050400084F8449094F84530FF2B08BF84F84590CD
:1050500001F0A8F801A902A800F096FD00284AD1A5
:1050600001F080F8A26BE36B9A4231D101F09AF81B
:10507000019904F1100000F0FFFC2046FFF7C9FE83
:1050800000F028FC60B3012601F06CF8A26BE36B22
:105090009A4201D3022FBFD13A4641462046FFF73C
:1050A0006DFE636A1BB104F1240000F01DFD48B1E0
:1050B0004FF0E0234FF08052C3F8042DBFF34F8F21
:1050C000BFF36F8F01F06EF8012005B0BDE8F083EB
:1050D00001F068F82046FFF79CFE00F0FBFBD2E7EA
:1050E0004FF0E0234FF08052C3F8042DBFF34F8FF1
:1050F000BFF36F8FC7E72046FFF78BFE00F0EAFB98
:105100008EE72DE9F843894690461F46044640B98C
:105110004FF0500383F31188BFF36F8FBFF34F8FAE
:10512000FEE751B9036C43B14FF0500383F311888C
:10513000BFF36F8FBFF34F8FFEE7022F0BD1E36BEF
:10514000012B08D04FF0500383F31188BFF36F8F0A
:10515000BFF34F8FFEE701F01BF9EFF311864FF01D
:10516000500383F31188BFF36F8FBFF34F8FA26B90
:10517000E36B9A4201D3022F23D194F84550A36BDD
:105180006DB23A4649462046FFF7F8FD6B1C13D135
:10519000636A0BB901200BE004F1240000F0A4FCC9
:1051A0000028F7D0B8F1000FF4D00120C8F80000B3
:1051B00086F31188BDE8F88301356DB284F8455057
:1051C000E8E70020F4E72DE9FF410F46019204468D
:1051D00040B94FF0500383F31188BFF36F8FBFF3D3
:1051E0004F8FFEE751B9036C43B14FF0500383F387
:1051F0001188BFF36F8FBFF34F8FFEE700F006FDFE
:10520000064650B9019B4BB14FF0500383F3118810
:10521000BFF36F8FBFF34F8FFEE700264FF00008FC
:105220003DE0019D1DB900F0BDFF002056E016B91C
:1052300002A800F09DFC00F0B5FF00F0A7FA00F016
:1052400091FF94F84430FF2B08BF84F8448094F811
:105250004530FF2B08BF84F8458000F0A3FF01A96B
:1052600002A800F091FC002841D12046FFF77BFD09
:10527000B8B3019904F1240000F0FEFB2046FFF7CB
:10528000C8FD00F027FB48B94FF0E0234FF08052F3
:10529000C3F8042DBFF34F8FBFF36F8F012600F0CB
:1052A00061FFA56B002DBCD039462046013DFFF7BC
:1052B0009AFDA563236973B104F1100000F014FC9A
:1052C00048B14FF0E0234FF08052C3F8042DBFF3F4
:1052D0004F8FBFF36F8F00F065FF012004B0BDE872
:1052E000F0812046FFF795FD00F0F4FAD6E720465E
:1052F000FFF78FFD00F0EEFA2046FFF734FD00289F
:10530000CCD092E710B5074A002352F833402CB9AD
:1053100042F8331002EBC303586010BD0133082B71
:10532000F3D1FAE7240C002070B504460D4616466A
:1053300000F018FF94F84430FF2B04BF002384F8DA
:10534000443094F84530FF2B04BF002384F84530E7
:1053500000F028FFA36B2BB93246294604F1240044
:1053600000F0A4FB2046BDE87040FFF752BD0000EE
:105370002DE9F041044600F0F5FE304B304E1A683E
:10538000304F01321A603568002D4BD134601B68F4
:10539000012B1FD1B84640460135FFF7A3FC382D3D
:1053A00008F11408F7D1DFF8C480274D4046FFF715
:1053B00099FC2846FFF796FC2448FFF793FC244805
:1053C000FFF790FC2348FFF78DFC234BC3F80080C8
:1053D000224B1D60224A136801331360214A636423
:1053E0001168E36A14208B4200FB037004F104018E
:1053F00088BF1360FFF784FC00F0D4FE1A4B1B68D3
:1054000073B13368DA6AE36A9A4209D24FF0E02353
:105410004FF08052C3F8042DBFF34F8FBFF36F8F4F
:10542000BDE8F081104B1B68002BD3D13368DA6ADA
:10543000E36A9A4298BF3460CCE700BFD0100020E6
:10544000640C0020700C0020F810002018110020BF
:105450004411002030110020680C00206C0C00204A
:10546000DC100020E01000202C110020E4100020AF
:10547000F8B5154B154E1D680446306804300F46CC
:10548000FFF761FC631C07D137B131681048BDE8F4
:10549000F8400431FFF734BC33682C195C6007D343
:1054A0000C4B18683168BDE8F8400431FFF734BC94
:1054B000094B186831680431FFF72EFC074B1A6856
:1054C000A24288BF1C60F8BD58110020640C002067
:1054D000301100206C0C0020680C00200C11002002
:1054E000064A13681968064B19B94FF0FF321A6063
:1054F00070471268D268D2685268F8E7680C0020DA
:105500000C11002010B590F8593004463BB9006BDF
:1055100001F028F82046BDE8104001F023B8012B27
:10552000F9D0022B08D04FF0500383F31188BFF35A
:105530006F8FBFF34F8FFEE710BD000080B5134C97
:10554000134F144D236873B9134B1B68012BF8D903
:105550004FF0E0234FF08052C3F8042DBFF34F8F7C
:10556000BFF36F8FEDE700F0FDFDFB68DE68301DD7
:10557000FFF7E9FB2B68013B2B602368013B2360AD
:1055800000F010FE3046FFF7BDFFDBE7D41000202F
:1055900044110020D0100020700C00202DE9F047AD
:1055A000DDE909844FEA82094A4606460D46206B2A
:1055B000A5211F4601F0BEF9226BA9F1040991440F
:1055C00029F00709A5B36B1E04F134020F3513F857
:1055D000010F02F8010B08B1AB42F8D1002384F8A7
:1055E0004330089D372D28BF37254FF0000AE5626C
:1055F000E564201DC4F850A0FFF77FFBC5F1380516
:1056000004F11800FFF779FBC4F854A02461A561E8
:10561000646284F858A03A463146484600F074FD6A
:105620002060B8F1000F01D0C8F80040BDE8F08755
:1056300084F83450D5E770B586B0DDE90B5445B930
:105640004FF0500383F31188BFF36F8FBFF34F8F79
:10565000FEE744B94FF0500383F31188BFF36F8F17
:10566000BFF34F8FFEE75C260596059E5C2E08D0A3
:105670004FF0500383F31188BFF36F8FBFF34F8F49
:10568000FEE72563022584F8595004AD01950A9D73
:1056900002940095059EFFF781FF2046FFF768FE04
:1056A000049806B070BD2DE9F043074685B0900020
:1056B00088461646994600F0BDFE0546E8B15C20D6
:1056C00000F0B8FE0446A8B1002380F859300D9BC5
:1056D000056301930C9B0290009332464B46414672
:1056E0003846FFF75BFF2046FFF742FE012005B07A
:1056F000BDE8F083284600F035FF4FF0FF30F6E7B5
:1057000010B588B0002407AA06A905A8CDE905446C
:10571000FFF7D0FA059B0293069B079A1649174894
:10572000CDE900432346FFF786FF18B300F014FBD2
:10573000012814D14FF0500383F31188BFF36F8F0A
:10574000BFF34F8F0E4B4FF0FF321A600D4B1860B6
:105750000D4B1C6008B0BDE8104000F093BD013057
:1057600008D14FF0500383F31188BFF36F8FBFF35D
:105770004F8FFEE708B010BDBC9800083D550008EB
:105780000C1100202C11002058110020024A13682F
:1057900001331360704700BFD8100020014B186818
:1057A000704700BF581100203F4B1B682DE9F74F91
:1057B000002B73D13D4B1D6801351D60BDB93C4BBD
:1057C0001A68126842B14FF0500383F31188BFF397
:1057D0006F8FBFF34F8FFEE7364A19681068186065
:1057E0001160354A136801331360FFF779FE334EB9
:1057F000334F3368DFF8D4809D424FF0000411D25C
:10580000D8F80030DB6A14225343FB58022B2D4B8F
:105810001B6828BF0124002B18BF0124204603B0B9
:10582000BDE8F08FDFF88890DFF8A4A0D9F8003049
:105830001B681BB94FF0FF333360E1E7D9F8003044
:10584000DB68D3F80CB0DBF80420954201D232605B
:10585000D6E70BF1040108460191FFF774FADBF873
:105860002820019922B10BF11800FFF76CFA019979
:10587000DBF82C00DAF800201423904288BFCAF825
:10588000000003FB0070FFF73BFAD8F80010DBF8CC
:105890002C20CB6A9A4228BF0124C7E70A4A136822
:1058A000013313600024B9E7D810002058110020FC
:1058B000680C00206C0C0020101100200C1100203E
:1058C000700C00205C11002014110020640C0020DA
:1058D000E0100020F7B5314C236843B94FF0500376
:1058E00083F31188BFF36F8FBFF34F8FFEE700F094
:1058F00039FC2368013B236024682CB1002400F0AC
:1059000051FC204603B0F0BD254B1B68002BF5D0A1
:10591000244D254E254F1EE0EB68DC6804F118008D
:10592000FFF711FA211D08460191FFF70CFAE36A0F
:10593000326801991420934200FB037088BF3360E2
:10594000FFF7DEF91A4BE26A1B68DB6A9A4202D360
:10595000184B01221A602B68002BDDD10CB1FFF728
:10596000BFFD154D2C6844B1124E0127FFF71CFFF7
:1059700000B13760013CF9D12C600E4B1B68002B45
:10598000BCD04FF0E0234FF08052C3F8042DBFF39A
:105990004F8FBFF36F8F0124B1E700BFD8100020F5
:1059A000D010002018110020E0100020700C002002
:1059B000640C00205C1100201411002008B550B9BF
:1059C0004FF0E0234FF08052C3F8042DBFF34F8F08
:1059D000BFF36F8F08BD0A4B196841B14FF05003F8
:1059E00083F31188BFF36F8FBFF34F8FFEE7FFF78D
:1059F000CDFEFFF73DFDFFF76DFF0028E0D0E9E7A2
:105A0000D8100020174B1A68174B70B512B101223D
:105A10001A6070BD154D1A602A681549142606FBD8
:105A200002F3C818CC588CB14468083364684460E9
:105A30000B449C4204BF63684360142303FB0211C0
:105A40004B68D9680B4B19602A60E2E742B94FF006
:105A5000500383F31188BFF36F8FBFF34F8FFEE7BF
:105A6000013ADCE7D81000205C110020E010002093
:105A7000700C0020640C002010B50C4640B94FF0AB
:105A8000500383F31188BFF36F8FBFF34F8FFEE78F
:105A9000054B19681831FFF73FF920460121BDE891
:105AA0001040FFF7E5BC00BF640C002038B50D4680
:105AB000144640B94FF0500383F31188BFF36F8F42
:105AC000BFF34F8FFEE7074B19681831FFF718F93E
:105AD000002C21460CBF28464FF0FF30BDE838406F
